{
    "contractName": "SimpleStorage",
    "abi": [
        {
            "inputs": [],
            "name": "get",
            "outputs": [
                {
                    "internalType": "uint256",
                    "name": "",
                    "type": "uint256"
                }
            ],
            "stateMutability": "view",
            "type": "function"
        },
        {
            "inputs": [
                {
                    "internalType": "uint256",
                    "name": "x",
                    "type": "uint256"
                }
            ],
            "name": "post",
            "outputs": [],
            "stateMutability": "nonpayable",
            "type": "function"
        },
        {
            "inputs": [
                {
                    "internalType": "uint256",
                    "name": "x",
                    "type": "uint256"
                }
            ],
            "name": "set",
            "outputs": [],
            "stateMutability": "nonpayable",
            "type": "function"
        }
    ],
    "bytecode": "608060405234801561001057600080fd5b5060d58061001f6000396000f3fe6080604052348015600f57600080fd5b5060043610603c5760003560e01c806360fe47b11460415780636d4ce63c14605d578063caa5863c146075575b600080fd5b605b60048036036020811015605557600080fd5b5035608f565b005b60636094565b60408051918252519081900360200190f35b605b60048036036020811015608957600080fd5b5035609a565b600055565b60005490565b60015556fea2646970667358221220a4759fbba711c0792c6a482b532a553203f71cd508f40ee87a1ef2cb143b747764736f6c63430007040033",
    "sourcePath": "d:/Projects/CS6305_FinalProject/blockchain/contracts/index.sol",
    "compiler": {
        "name": "solc",
        "version": "0.7.4+commit.3f05b770"
    },
    "functionHashes": {
        "get()": "6d4ce63c",
        "post(uint256)": "caa5863c",
        "set(uint256)": "60fe47b1"
    },
    "gasEstimates": {
        "creation": {
            "codeDepositCost": "42600",
            "executionCost": "93",
            "totalCost": "42693"
        },
        "external": {
            "get()": "998",
            "post(uint256)": "20211",
            "set(uint256)": "20167"
        }
    }
}