{
    "contractName": "WatchContract",
    "abi": [
        {
            "inputs": [
                {
                    "internalType": "string",
                    "name": "str",
                    "type": "string"
                },
                {
                    "internalType": "string",
                    "name": "other",
                    "type": "string"
                }
            ],
            "name": "StringsAreEqual",
            "outputs": [
                {
                    "internalType": "bool",
                    "name": "",
                    "type": "bool"
                }
            ],
            "stateMutability": "pure",
            "type": "function"
        },
        {
            "inputs": [
                {
                    "internalType": "address",
                    "name": "vendorAddress",
                    "type": "address"
                },
                {
                    "internalType": "string",
                    "name": "physicalAddress",
                    "type": "string"
                },
                {
                    "internalType": "uint64",
                    "name": "WatchGUID",
                    "type": "uint64"
                }
            ],
            "name": "WatchAssembled",
            "outputs": [],
            "stateMutability": "nonpayable",
            "type": "function"
        },
        {
            "inputs": [
                {
                    "internalType": "address",
                    "name": "vendorAddress",
                    "type": "address"
                },
                {
                    "internalType": "uint64",
                    "name": "WatchGUID",
                    "type": "uint64"
                }
            ],
            "name": "WatchRecieved",
            "outputs": [],
            "stateMutability": "nonpayable",
            "type": "function"
        },
        {
            "inputs": [
                {
                    "internalType": "address",
                    "name": "vendorAddress",
                    "type": "address"
                },
                {
                    "internalType": "uint64",
                    "name": "WatchGUID",
                    "type": "uint64"
                },
                {
                    "internalType": "string",
                    "name": "sendingAddress",
                    "type": "string"
                },
                {
                    "internalType": "string",
                    "name": "recievingAddress",
                    "type": "string"
                }
            ],
            "name": "WatchSent",
            "outputs": [],
            "stateMutability": "nonpayable",
            "type": "function"
        },
        {
            "inputs": [
                {
                    "internalType": "address",
                    "name": "vendorAddress",
                    "type": "address"
                },
                {
                    "internalType": "uint64",
                    "name": "GUID",
                    "type": "uint64"
                },
                {
                    "internalType": "string",
                    "name": "watchType",
                    "type": "string"
                }
            ],
            "name": "createWatch",
            "outputs": [],
            "stateMutability": "nonpayable",
            "type": "function"
        },
        {
            "inputs": [
                {
                    "internalType": "address",
                    "name": "vendorAddress",
                    "type": "address"
                },
                {
                    "internalType": "uint64",
                    "name": "GUID",
                    "type": "uint64"
                }
            ],
            "name": "materialsRecieved",
            "outputs": [],
            "stateMutability": "nonpayable",
            "type": "function"
        }
    ],
    "bytecode": "608060405234801561001057600080fd5b50610bf9806100206000396000f3fe608060405234801561001057600080fd5b50600436106100625760003560e01c80632d435f811461006757806357c864011461007c57806381029ae9146100a357806381fb441a146100b6578063cc6a5c58146100c9578063dccb2d7b146100dc575b600080fd5b61007a610075366004610a58565b6100ef565b005b61008f61008a366004610ad9565b6102f9565b604051901515815260200160405180910390f35b61007a6100b13660046109cb565b610352565b61007a6100c43660046109cb565b61048e565b61007a6100d7366004610970565b61053d565b61007a6100ea3660046109fd565b610692565b60006100fb858561073d565b905061019381600401805461010f90610b72565b80601f016020809104026020016040519081016040528092919081815260200182805461013b90610b72565b80156101885780601f1061015d57610100808354040283529160200191610188565b820191906000526020600020905b81548152906001019060200180831161016b57829003601f168201915b5050505050846102f9565b61019c57600080fd5b42600882015582516101b790600583019060208601906107a3565b5081516101cd90600683019060208501906107a3565b50600180820180546001600160401b03600160a01b9182900481166000908152602081905260409020855481546001600160a01b03199081166001600160a01b039283161783558554968301805491821697909216968717825594548490049092169092026001600160e01b03199093169093179190911790915560028083015490820155600380830180548493928301919061026990610b72565b610274929190610827565b50600482018160040190805461028990610b72565b610294929190610827565b5060058201816005019080546102a990610b72565b6102b4929190610827565b5060068201816006019080546102c990610b72565b6102d4929190610827565b5060078281015490820155600880830154908201556009918201549101555050505050565b60008160405160200161030c9190610b39565b60405160208183030381529060405280519060200120836040516020016103339190610b39565b6040516020818303038152906040528051906020012014905092915050565b600061035e838361073d565b426002808301918255600180840180546001600160401b03600160a01b9182900481166000908152602081905260409020875481546001600160a01b03199081166001600160a01b039283161783558554968301805491821697909216968717825594548490049092169092026001600160e01b0319909316909317919091179091559154908201556003808301805493945084939183019161040090610b72565b61040b929190610827565b50600482018160040190805461042090610b72565b61042b929190610827565b50600582018160050190805461044090610b72565b61044b929190610827565b50600682018160060190805461046090610b72565b61046b929190610827565b506007828101549082015560088083015490820155600991820154910155505050565b600061049a838361073d565b426009820155600180820180546001600160401b03600160a01b9182900481166000908152602081905260409020855481546001600160a01b03199081166001600160a01b039283161783558554968301805491821697909216968717825594548490049092169092026001600160e01b031990931690931791909117909155600280830154908201556003808301805493945084939183019161040090610b72565b6000610549848361073d565b426007820155835190915061056790600483019060208601906107a3565b50600180820180546001600160401b03600160a01b9182900481166000908152602081905260409020855481546001600160a01b03199081166001600160a01b039283161783558554968301805491821697909216968717825594548490049092169092026001600160e01b03199093169093179190911790915560028083015490820155600380830180548493928301919061060390610b72565b61060e929190610827565b50600482018160040190805461062390610b72565b61062e929190610827565b50600582018160050190805461064390610b72565b61064e929190610827565b50600682018160060190805461066390610b72565b61066e929190610827565b50600782810154908201556008808301549082015560099182015491015550505050565b6001600160401b03808316600081815260208190526040902060010154600160a01b900490911614156106c457600080fd5b6001600160401b03821660008181526020818152604090912080546001600160a01b0319166001600160a01b0387161781556001810180546001600160e01b0319163367ffffffffffffffff60a01b191617600160a01b90940293909317909255825161073792600301918401906107a3565b50505050565b60006001600160401b03821661075257600080fd5b6001600160401b038216600090815260208190526040902080546001600160a01b0385811691161461078357600080fd5b60018101546001600160a01b0316331461079c57600080fd5b9392505050565b8280546107af90610b72565b90600052602060002090601f0160209004810192826107d15760008555610817565b82601f106107ea57805160ff1916838001178555610817565b82800160010185558215610817579182015b828111156108175782518255916020019190600101906107fc565b506108239291506108a2565b5090565b82805461083390610b72565b90600052602060002090601f0160209004810192826108555760008555610817565b82601f106108665780548555610817565b8280016001018555821561081757600052602060002091601f016020900482015b82811115610817578254825591600101919060010190610887565b5b8082111561082357600081556001016108a3565b80356001600160a01b03811681146108ce57600080fd5b919050565b600082601f8301126108e3578081fd5b81356001600160401b03808211156108fd576108fd610bad565b604051601f8301601f19908116603f0116810190828211818310171561092557610925610bad565b8160405283815286602085880101111561093d578485fd5b8360208701602083013792830160200193909352509392505050565b80356001600160401b03811681146108ce57600080fd5b600080600060608486031215610984578283fd5b61098d846108b7565b925060208401356001600160401b038111156109a7578283fd5b6109b3868287016108d3565b9250506109c260408501610959565b90509250925092565b600080604083850312156109dd578182fd5b6109e6836108b7565b91506109f460208401610959565b90509250929050565b600080600060608486031215610a11578283fd5b610a1a846108b7565b9250610a2860208501610959565b915060408401356001600160401b03811115610a42578182fd5b610a4e868287016108d3565b9150509250925092565b60008060008060808587031215610a6d578081fd5b610a76856108b7565b9350610a8460208601610959565b925060408501356001600160401b0380821115610a9f578283fd5b610aab888389016108d3565b93506060870135915080821115610ac0578283fd5b50610acd878288016108d3565b91505092959194509250565b60008060408385031215610aeb578182fd5b82356001600160401b0380821115610b01578384fd5b610b0d868387016108d3565b93506020850135915080821115610b22578283fd5b50610b2f858286016108d3565b9150509250929050565b60008251815b81811015610b595760208186018101518583015201610b3f565b81811115610b675782828501525b509190910192915050565b600181811c90821680610b8657607f821691505b60208210811415610ba757634e487b7160e01b600052602260045260246000fd5b50919050565b634e487b7160e01b600052604160045260246000fdfea2646970667358221220d1fcd3031a386eb74ab58cc30284a944fb075e83fc3caef928f5736da58ffb2464736f6c63430008030033",
    "sourcePath": "d:/Projects/CS6305_FinalProject/blockchain/contracts/watch.sol",
    "compiler": {
        "name": "solc",
        "version": "0.8.3+commit.8d00100c"
    },
    "functionHashes": {
        "StringsAreEqual(string,string)": "57c86401",
        "WatchAssembled(address,string,uint64)": "cc6a5c58",
        "WatchRecieved(address,uint64)": "81fb441a",
        "WatchSent(address,uint64,string,string)": "2d435f81",
        "createWatch(address,uint64,string)": "dccb2d7b",
        "materialsRecieved(address,uint64)": "81029ae9"
    },
    "gasEstimates": {
        "creation": {
            "codeDepositCost": "613000",
            "executionCost": "645",
            "totalCost": "613645"
        },
        "external": {
            "StringsAreEqual(string,string)": "infinite",
            "WatchAssembled(address,string,uint64)": "infinite",
            "WatchRecieved(address,uint64)": "infinite",
            "WatchSent(address,uint64,string,string)": "infinite",
            "createWatch(address,uint64,string)": "infinite",
            "materialsRecieved(address,uint64)": "infinite"
        },
        "internal": {
            "getWatch(address,uint64)": "1854"
        }
    }
}