{
    "contractName": "WatchContract",
    "abi": [
        {
            "inputs": [
                {
                    "internalType": "uint128",
                    "name": "GUID",
                    "type": "uint128"
                }
            ],
            "name": "GetAssembledTimeStamp",
            "outputs": [
                {
                    "internalType": "uint256",
                    "name": "",
                    "type": "uint256"
                }
            ],
            "stateMutability": "view",
            "type": "function"
        },
        {
            "inputs": [
                {
                    "internalType": "uint128",
                    "name": "GUID",
                    "type": "uint128"
                }
            ],
            "name": "GetClientAddress",
            "outputs": [
                {
                    "internalType": "address",
                    "name": "",
                    "type": "address"
                }
            ],
            "stateMutability": "view",
            "type": "function"
        },
        {
            "inputs": [
                {
                    "internalType": "uint128",
                    "name": "GUID",
                    "type": "uint128"
                }
            ],
            "name": "GetCreationAddress",
            "outputs": [
                {
                    "internalType": "string",
                    "name": "",
                    "type": "string"
                }
            ],
            "stateMutability": "view",
            "type": "function"
        },
        {
            "inputs": [
                {
                    "internalType": "uint128",
                    "name": "GUID",
                    "type": "uint128"
                }
            ],
            "name": "GetDeliveredTimeStamp",
            "outputs": [
                {
                    "internalType": "uint256",
                    "name": "",
                    "type": "uint256"
                }
            ],
            "stateMutability": "view",
            "type": "function"
        },
        {
            "inputs": [
                {
                    "internalType": "uint128",
                    "name": "GUID",
                    "type": "uint128"
                }
            ],
            "name": "GetDeliveryAddress",
            "outputs": [
                {
                    "internalType": "string",
                    "name": "",
                    "type": "string"
                }
            ],
            "stateMutability": "view",
            "type": "function"
        },
        {
            "inputs": [
                {
                    "internalType": "uint128",
                    "name": "GUID",
                    "type": "uint128"
                }
            ],
            "name": "GetGUID",
            "outputs": [
                {
                    "internalType": "uint128",
                    "name": "",
                    "type": "uint128"
                }
            ],
            "stateMutability": "view",
            "type": "function"
        },
        {
            "inputs": [
                {
                    "internalType": "uint128",
                    "name": "GUID",
                    "type": "uint128"
                }
            ],
            "name": "GetMaterialsReceivedTimeStamp",
            "outputs": [
                {
                    "internalType": "uint256",
                    "name": "",
                    "type": "uint256"
                }
            ],
            "stateMutability": "view",
            "type": "function"
        },
        {
            "inputs": [
                {
                    "internalType": "uint128",
                    "name": "GUID",
                    "type": "uint128"
                }
            ],
            "name": "GetSentTimeStamp",
            "outputs": [
                {
                    "internalType": "uint256",
                    "name": "",
                    "type": "uint256"
                }
            ],
            "stateMutability": "view",
            "type": "function"
        },
        {
            "inputs": [
                {
                    "internalType": "uint128",
                    "name": "GUID",
                    "type": "uint128"
                }
            ],
            "name": "GetShippingAddress",
            "outputs": [
                {
                    "internalType": "string",
                    "name": "",
                    "type": "string"
                }
            ],
            "stateMutability": "view",
            "type": "function"
        },
        {
            "inputs": [
                {
                    "internalType": "uint128",
                    "name": "GUID",
                    "type": "uint128"
                }
            ],
            "name": "GetVendorAddress",
            "outputs": [
                {
                    "internalType": "address",
                    "name": "",
                    "type": "address"
                }
            ],
            "stateMutability": "view",
            "type": "function"
        },
        {
            "inputs": [
                {
                    "internalType": "uint128",
                    "name": "GUID",
                    "type": "uint128"
                }
            ],
            "name": "GetWatchType",
            "outputs": [
                {
                    "internalType": "string",
                    "name": "",
                    "type": "string"
                }
            ],
            "stateMutability": "view",
            "type": "function"
        },
        {
            "inputs": [
                {
                    "internalType": "string",
                    "name": "str",
                    "type": "string"
                },
                {
                    "internalType": "string",
                    "name": "other",
                    "type": "string"
                }
            ],
            "name": "StringsAreEqual",
            "outputs": [
                {
                    "internalType": "bool",
                    "name": "",
                    "type": "bool"
                }
            ],
            "stateMutability": "pure",
            "type": "function"
        },
        {
            "inputs": [
                {
                    "internalType": "address",
                    "name": "vendorAddress",
                    "type": "address"
                },
                {
                    "internalType": "string",
                    "name": "physicalAddress",
                    "type": "string"
                },
                {
                    "internalType": "uint128",
                    "name": "WatchGUID",
                    "type": "uint128"
                }
            ],
            "name": "WatchAssembled",
            "outputs": [],
            "stateMutability": "nonpayable",
            "type": "function"
        },
        {
            "inputs": [
                {
                    "internalType": "address",
                    "name": "vendorAddress",
                    "type": "address"
                },
                {
                    "internalType": "uint128",
                    "name": "WatchGUID",
                    "type": "uint128"
                }
            ],
            "name": "WatchReceived",
            "outputs": [],
            "stateMutability": "nonpayable",
            "type": "function"
        },
        {
            "inputs": [
                {
                    "internalType": "address",
                    "name": "vendorAddress",
                    "type": "address"
                },
                {
                    "internalType": "uint128",
                    "name": "WatchGUID",
                    "type": "uint128"
                },
                {
                    "internalType": "string",
                    "name": "sendingAddress",
                    "type": "string"
                },
                {
                    "internalType": "string",
                    "name": "receivingAddress",
                    "type": "string"
                }
            ],
            "name": "WatchSent",
            "outputs": [],
            "stateMutability": "nonpayable",
            "type": "function"
        },
        {
            "inputs": [
                {
                    "internalType": "address",
                    "name": "vendorAddress",
                    "type": "address"
                },
                {
                    "internalType": "uint128",
                    "name": "GUID",
                    "type": "uint128"
                },
                {
                    "internalType": "string",
                    "name": "watchType",
                    "type": "string"
                }
            ],
            "name": "createWatch",
            "outputs": [],
            "stateMutability": "nonpayable",
            "type": "function"
        },
        {
            "inputs": [
                {
                    "internalType": "address",
                    "name": "vendorAddress",
                    "type": "address"
                },
                {
                    "internalType": "uint128",
                    "name": "GUID",
                    "type": "uint128"
                }
            ],
            "name": "materialsReceived",
            "outputs": [],
            "stateMutability": "nonpayable",
            "type": "function"
        }
    ],
    "bytecode": "608060405234801561001057600080fd5b50610fd5806100206000396000f3fe608060405234801561001057600080fd5b506004361061010b5760003560e01c80638913f84b116100a2578063bb259e4211610071578063bb259e42146102ca578063d02abe41146102f6578063dd448c6514610309578063ee981c501461031c578063f58e75241461032f57600080fd5b80638913f84b146102655780638f174f30146102915780639b7cda07146102a4578063b3b4da13146102b757600080fd5b806357c86401116100de57806357c86401146101b05780637e05646a146101d35780637ecd4fd2146101e657806383739b661461023357600080fd5b80631910668d146101105780633728eca11461014f578063519e4db81461016f578063520710e71461019b575b600080fd5b61013c61011e366004610eb9565b6001600160801b031660009081526020819052604090206009015490565b6040519081526020015b60405180910390f35b61016261015d366004610eb9565b610376565b6040516101469190610eef565b61013c61017d366004610eb9565b6001600160801b03166000908152602081905260409020600a015490565b6101ae6101a9366004610d48565b610425565b005b6101c36101be366004610e58565b610558565b6040519015158152602001610146565b6101626101e1366004610eb9565b6105b1565b61021b6101f4366004610eb9565b6001600160801b03166000908152602081905260409020600101546001600160a01b031690565b6040516001600160a01b039091168152602001610146565b61021b610241366004610eb9565b6001600160801b03166000908152602081905260409020546001600160a01b031690565b61013c610273366004610eb9565b6001600160801b031660009081526020819052604090206003015490565b61016261029f366004610eb9565b6105db565b6101ae6102b2366004610cec565b610605565b6101ae6102c5366004610d7a565b610750565b61013c6102d8366004610eb9565b6001600160801b031660009081526020819052604090206008015490565b610162610304366004610eb9565b6107ea565b6101ae610317366004610dd6565b610814565b6101ae61032a366004610d48565b610a14565b61035e61033d366004610eb9565b6001600160801b039081166000908152602081905260409020600201541690565b6040516001600160801b039091168152602001610146565b6001600160801b03811660009081526020819052604090206005018054606091906103a090610f4e565b80601f01602080910402602001604051908101604052809291908181526020018280546103cc90610f4e565b80156104195780601f106103ee57610100808354040283529160200191610419565b820191906000526020600020905b8154815290600101906020018083116103fc57829003601f168201915b50505050509050919050565b60006104318383610ab8565b42600a820155600280820180546001600160801b039081166000908152602081905260409020845481546001600160a01b03199081166001600160a01b0392831617835560018088015490840180549092169216919091179055915492820180546001600160801b031916939091169290921790915560038083015490820155600480830180549394508493918301916104ca90610f4e565b6104d5929190610b1e565b5060058201816005019080546104ea90610f4e565b6104f5929190610b1e565b50600682018160060190805461050a90610f4e565b610515929190610b1e565b50600782018160070190805461052a90610f4e565b610535929190610b1e565b506008828101549082015560098083015490820155600a91820154910155505050565b60008160405160200161056b9190610ed3565b60405160208183030381529060405280519060200120836040516020016105929190610ed3565b6040516020818303038152906040528051906020012014905092915050565b6001600160801b03811660009081526020819052604090206004018054606091906103a090610f4e565b6001600160801b03811660009081526020819052604090206007018054606091906103a090610f4e565b60006106118483610ab8565b426008820155835190915061062f9060058301906020860190610ba9565b50600280820180546001600160801b039081166000908152602081905260409020845481546001600160a01b03199081166001600160a01b0392831617835560018088015490840180549092169216919091179055915492820180546001600160801b03191693909116929092179091556003808301549082015560048083018054849392830191906106c190610f4e565b6106cc929190610b1e565b5060058201816005019080546106e190610f4e565b6106ec929190610b1e565b50600682018160060190805461070190610f4e565b61070c929190610b1e565b50600782018160070190805461072190610f4e565b61072c929190610b1e565b506008828101549082015560098083015490820155600a9182015491015550505050565b6001600160801b03808316600081815260208190526040902060020154909116141561077b57600080fd5b6001600160801b03821660008181526020818152604090912080546001600160a01b0387166001600160a01b0319918216178255600182018054909116331790556002810180546001600160801b03191690931790925582516107e49260040191840190610ba9565b50505050565b6001600160801b03811660009081526020819052604090206006018054606091906103a090610f4e565b60006108208585610ab8565b90506108b881600501805461083490610f4e565b80601f016020809104026020016040519081016040528092919081815260200182805461086090610f4e565b80156108ad5780601f10610882576101008083540402835291602001916108ad565b820191906000526020600020905b81548152906001019060200180831161089057829003601f168201915b505050505084610558565b6108c157600080fd5b42600982015582516108dc9060068301906020860190610ba9565b5081516108f29060078301906020850190610ba9565b50600280820180546001600160801b039081166000908152602081905260409020845481546001600160a01b03199081166001600160a01b0392831617835560018088015490840180549092169216919091179055915492820180546001600160801b031916939091169290921790915560038083015490820155600480830180548493928301919061098490610f4e565b61098f929190610b1e565b5060058201816005019080546109a490610f4e565b6109af929190610b1e565b5060068201816006019080546109c490610f4e565b6109cf929190610b1e565b5060078201816007019080546109e490610f4e565b6109ef929190610b1e565b506008828101549082015560098083015490820155600a918201549101555050505050565b6000610a208383610ab8565b426003808301918255600280840180546001600160801b039081166000908152602081905260409020865481546001600160a01b03199081166001600160a01b039283161783556001808a015490840180549092169216919091179055915492820180546001600160801b0319169390911692909217909155915490820155600480830180549394508493918301916104ca90610f4e565b60006001600160801b038216610acd57600080fd5b6001600160801b038216600090815260208190526040902080546001600160a01b03858116911614610afe57600080fd5b60018101546001600160a01b03163314610b1757600080fd5b9392505050565b828054610b2a90610f4e565b90600052602060002090601f016020900481019282610b4c5760008555610b99565b82601f10610b5d5780548555610b99565b82800160010185558215610b9957600052602060002091601f016020900482015b82811115610b99578254825591600101919060010190610b7e565b50610ba5929150610c1d565b5090565b828054610bb590610f4e565b90600052602060002090601f016020900481019282610bd75760008555610b99565b82601f10610bf057805160ff1916838001178555610b99565b82800160010185558215610b99579182015b82811115610b99578251825591602001919060010190610c02565b5b80821115610ba55760008155600101610c1e565b80356001600160a01b0381168114610c4957600080fd5b919050565b600082601f830112610c5e578081fd5b813567ffffffffffffffff80821115610c7957610c79610f89565b604051601f8301601f19908116603f01168101908282118183101715610ca157610ca1610f89565b81604052838152866020858801011115610cb9578485fd5b8360208701602083013792830160200193909352509392505050565b80356001600160801b0381168114610c4957600080fd5b600080600060608486031215610d00578283fd5b610d0984610c32565b9250602084013567ffffffffffffffff811115610d24578283fd5b610d3086828701610c4e565b925050610d3f60408501610cd5565b90509250925092565b60008060408385031215610d5a578182fd5b610d6383610c32565b9150610d7160208401610cd5565b90509250929050565b600080600060608486031215610d8e578283fd5b610d9784610c32565b9250610da560208501610cd5565b9150604084013567ffffffffffffffff811115610dc0578182fd5b610dcc86828701610c4e565b9150509250925092565b60008060008060808587031215610deb578081fd5b610df485610c32565b9350610e0260208601610cd5565b9250604085013567ffffffffffffffff80821115610e1e578283fd5b610e2a88838901610c4e565b93506060870135915080821115610e3f578283fd5b50610e4c87828801610c4e565b91505092959194509250565b60008060408385031215610e6a578182fd5b823567ffffffffffffffff80821115610e81578384fd5b610e8d86838701610c4e565b93506020850135915080821115610ea2578283fd5b50610eaf85828601610c4e565b9150509250929050565b600060208284031215610eca578081fd5b610b1782610cd5565b60008251610ee5818460208701610f22565b9190910192915050565b6020815260008251806020840152610f0e816040850160208701610f22565b601f01601f19169190910160400192915050565b60005b83811015610f3d578181015183820152602001610f25565b838111156107e45750506000910152565b600181811c90821680610f6257607f821691505b60208210811415610f8357634e487b7160e01b600052602260045260246000fd5b50919050565b634e487b7160e01b600052604160045260246000fdfea2646970667358221220c7beb181f4c1bb52cee00224c286b7a33ec1ae2268cd4cff53f4077842b4193464736f6c63430008040033",
    "sourcePath": "d:/Projects/CS6305_FinalProject/blockchain/contracts/watch.sol",
    "compiler": {
        "name": "solc",
        "version": "0.8.4+commit.c7e474f2"
    },
    "functionHashes": {
        "GetAssembledTimeStamp(uint128)": "bb259e42",
        "GetClientAddress(uint128)": "7ecd4fd2",
        "GetCreationAddress(uint128)": "3728eca1",
        "GetDeliveredTimeStamp(uint128)": "519e4db8",
        "GetDeliveryAddress(uint128)": "8f174f30",
        "GetGUID(uint128)": "f58e7524",
        "GetMaterialsReceivedTimeStamp(uint128)": "8913f84b",
        "GetSentTimeStamp(uint128)": "1910668d",
        "GetShippingAddress(uint128)": "d02abe41",
        "GetVendorAddress(uint128)": "83739b66",
        "GetWatchType(uint128)": "7e05646a",
        "StringsAreEqual(string,string)": "57c86401",
        "WatchAssembled(address,string,uint128)": "9b7cda07",
        "WatchReceived(address,uint128)": "520710e7",
        "WatchSent(address,uint128,string,string)": "dd448c65",
        "createWatch(address,uint128,string)": "b3b4da13",
        "materialsReceived(address,uint128)": "ee981c50"
    },
    "gasEstimates": {
        "creation": {
            "codeDepositCost": "810600",
            "executionCost": "844",
            "totalCost": "811444"
        },
        "external": {
            "GetAssembledTimeStamp(uint128)": "1257",
            "GetClientAddress(uint128)": "1352",
            "GetCreationAddress(uint128)": "infinite",
            "GetDeliveredTimeStamp(uint128)": "1303",
            "GetDeliveryAddress(uint128)": "infinite",
            "GetGUID(uint128)": "1386",
            "GetMaterialsReceivedTimeStamp(uint128)": "1258",
            "GetSentTimeStamp(uint128)": "1259",
            "GetShippingAddress(uint128)": "infinite",
            "GetVendorAddress(uint128)": "1368",
            "GetWatchType(uint128)": "infinite",
            "StringsAreEqual(string,string)": "infinite",
            "WatchAssembled(address,string,uint128)": "infinite",
            "WatchReceived(address,uint128)": "infinite",
            "WatchSent(address,uint128,string,string)": "infinite",
            "createWatch(address,uint128,string)": "infinite",
            "materialsReceived(address,uint128)": "infinite"
        },
        "internal": {
            "getWatch(address,uint128)": "1854"
        }
    }
}